{
  "_format": "hh-sol-artifact-1",
  "contractName": "Contractor",
  "sourceName": "contracts/TheContractCrew.sol",
  "abi": [
    {
      "inputs": [
        {
          "internalType": "string",
          "name": "_category",
          "type": "string"
        },
        {
          "internalType": "uint256",
          "name": "_projectId",
          "type": "uint256"
        },
        {
          "internalType": "string",
          "name": "_projectName",
          "type": "string"
        },
        {
          "internalType": "uint256",
          "name": "_requiredAmount",
          "type": "uint256"
        },
        {
          "internalType": "uint256",
          "name": "_deadline",
          "type": "uint256"
        },
        {
          "internalType": "address[]",
          "name": "_trustedEngineers",
          "type": "address[]"
        },
        {
          "internalType": "uint256",
          "name": "_count",
          "type": "uint256"
        },
        {
          "internalType": "address",
          "name": "official",
          "type": "address"
        }
      ],
      "stateMutability": "nonpayable",
      "type": "constructor"
    },
    {
      "anonymous": false,
      "inputs": [
        {
          "indexed": true,
          "internalType": "address",
          "name": "engineerAddress",
          "type": "address"
        },
        {
          "indexed": true,
          "internalType": "uint256",
          "name": "timestamp",
          "type": "uint256"
        },
        {
          "indexed": true,
          "internalType": "uint256",
          "name": "projectId",
          "type": "uint256"
        }
      ],
      "name": "approvingEngineers",
      "type": "event"
    },
    {
      "anonymous": false,
      "inputs": [
        {
          "indexed": true,
          "internalType": "string",
          "name": "category",
          "type": "string"
        },
        {
          "indexed": false,
          "internalType": "uint256",
          "name": "projectId",
          "type": "uint256"
        },
        {
          "indexed": true,
          "internalType": "address",
          "name": "contractor",
          "type": "address"
        },
        {
          "indexed": false,
          "internalType": "uint256",
          "name": "amount",
          "type": "uint256"
        },
        {
          "indexed": true,
          "internalType": "uint256",
          "name": "timestamp",
          "type": "uint256"
        }
      ],
      "name": "passedContracts",
      "type": "event"
    },
    {
      "inputs": [],
      "name": "MRTH_Official",
      "outputs": [
        {
          "internalType": "address",
          "name": "",
          "type": "address"
        }
      ],
      "stateMutability": "view",
      "type": "function"
    },
    {
      "inputs": [],
      "name": "approvalCount",
      "outputs": [
        {
          "internalType": "uint256",
          "name": "",
          "type": "uint256"
        }
      ],
      "stateMutability": "view",
      "type": "function"
    },
    {
      "inputs": [],
      "name": "approve",
      "outputs": [],
      "stateMutability": "nonpayable",
      "type": "function"
    },
    {
      "inputs": [],
      "name": "category",
      "outputs": [
        {
          "internalType": "string",
          "name": "",
          "type": "string"
        }
      ],
      "stateMutability": "view",
      "type": "function"
    },
    {
      "inputs": [],
      "name": "contractorAddress",
      "outputs": [
        {
          "internalType": "address payable",
          "name": "",
          "type": "address"
        }
      ],
      "stateMutability": "view",
      "type": "function"
    },
    {
      "inputs": [],
      "name": "deadline",
      "outputs": [
        {
          "internalType": "uint256",
          "name": "",
          "type": "uint256"
        }
      ],
      "stateMutability": "view",
      "type": "function"
    },
    {
      "inputs": [],
      "name": "passContract",
      "outputs": [],
      "stateMutability": "payable",
      "type": "function"
    },
    {
      "inputs": [],
      "name": "projectId",
      "outputs": [
        {
          "internalType": "uint256",
          "name": "",
          "type": "uint256"
        }
      ],
      "stateMutability": "view",
      "type": "function"
    },
    {
      "inputs": [],
      "name": "projectName",
      "outputs": [
        {
          "internalType": "string",
          "name": "",
          "type": "string"
        }
      ],
      "stateMutability": "view",
      "type": "function"
    },
    {
      "inputs": [],
      "name": "requiredAmount",
      "outputs": [
        {
          "internalType": "uint256",
          "name": "",
          "type": "uint256"
        }
      ],
      "stateMutability": "view",
      "type": "function"
    },
    {
      "inputs": [
        {
          "internalType": "uint256",
          "name": "",
          "type": "uint256"
        }
      ],
      "name": "trustedEngineers",
      "outputs": [
        {
          "internalType": "address",
          "name": "",
          "type": "address"
        }
      ],
      "stateMutability": "view",
      "type": "function"
    }
  ],
  "bytecode": "0x60806040523480156200001157600080fd5b50604051620014a9380380620014a9833981810160405281019062000037919062000585565b87600090805190602001906200004f9291906200012e565b508660018190555085600290805190602001906200006f9291906200012e565b508460038190555083600481905550826005908051906020019062000096929190620001bf565b508160068190555033600760006101000a81548173ffffffffffffffffffffffffffffffffffffffff021916908373ffffffffffffffffffffffffffffffffffffffff16021790555080600860006101000a81548173ffffffffffffffffffffffffffffffffffffffff021916908373ffffffffffffffffffffffffffffffffffffffff160217905550505050505050505062000710565b8280546200013c90620006da565b90600052602060002090601f016020900481019282620001605760008555620001ac565b82601f106200017b57805160ff1916838001178555620001ac565b82800160010185558215620001ac579182015b82811115620001ab5782518255916020019190600101906200018e565b5b509050620001bb91906200024e565b5090565b8280548282559060005260206000209081019282156200023b579160200282015b828111156200023a5782518260006101000a81548173ffffffffffffffffffffffffffffffffffffffff021916908373ffffffffffffffffffffffffffffffffffffffff16021790555091602001919060010190620001e0565b5b5090506200024a91906200024e565b5090565b5b80821115620002695760008160009055506001016200024f565b5090565b6000604051905090565b600080fd5b600080fd5b600080fd5b600080fd5b6000601f19601f8301169050919050565b7f4e487b7100000000000000000000000000000000000000000000000000000000600052604160045260246000fd5b620002d6826200028b565b810181811067ffffffffffffffff82111715620002f857620002f76200029c565b5b80604052505050565b60006200030d6200026d565b90506200031b8282620002cb565b919050565b600067ffffffffffffffff8211156200033e576200033d6200029c565b5b62000349826200028b565b9050602081019050919050565b60005b838110156200037657808201518184015260208101905062000359565b8381111562000386576000848401525b50505050565b6000620003a36200039d8462000320565b62000301565b905082815260208101848484011115620003c257620003c162000286565b5b620003cf84828562000356565b509392505050565b600082601f830112620003ef57620003ee62000281565b5b8151620004018482602086016200038c565b91505092915050565b6000819050919050565b6200041f816200040a565b81146200042b57600080fd5b50565b6000815190506200043f8162000414565b92915050565b600067ffffffffffffffff8211156200046357620004626200029c565b5b602082029050602081019050919050565b600080fd5b600073ffffffffffffffffffffffffffffffffffffffff82169050919050565b6000620004a68262000479565b9050919050565b620004b88162000499565b8114620004c457600080fd5b50565b600081519050620004d881620004ad565b92915050565b6000620004f5620004ef8462000445565b62000301565b905080838252602082019050602084028301858111156200051b576200051a62000474565b5b835b81811015620005485780620005338882620004c7565b8452602084019350506020810190506200051d565b5050509392505050565b600082601f8301126200056a576200056962000281565b5b81516200057c848260208601620004de565b91505092915050565b600080600080600080600080610100898b031215620005a957620005a862000277565b5b600089015167ffffffffffffffff811115620005ca57620005c96200027c565b5b620005d88b828c01620003d7565b9850506020620005eb8b828c016200042e565b975050604089015167ffffffffffffffff8111156200060f576200060e6200027c565b5b6200061d8b828c01620003d7565b9650506060620006308b828c016200042e565b9550506080620006438b828c016200042e565b94505060a089015167ffffffffffffffff8111156200066757620006666200027c565b5b620006758b828c0162000552565b93505060c0620006888b828c016200042e565b92505060e06200069b8b828c01620004c7565b9150509295985092959890939650565b7f4e487b7100000000000000000000000000000000000000000000000000000000600052602260045260246000fd5b60006002820490506001821680620006f357607f821691505b602082108114156200070a5762000709620006ab565b5b50919050565b610d8980620007206000396000f3fe60806040526004361061009c5760003560e01c8063604965c811610064578063604965c8146101765780636884d0a6146101a15780639a33e300146101cc578063ef430aa6146101f7578063f21376af14610222578063f56116fc1461024d5761009c565b806312424e3f146100a157806329dcb0cf146100b857806333a5efb2146100e35780633fafa1271461012057806348b9ef401461014b575b600080fd5b3480156100ad57600080fd5b506100b6610257565b005b3480156100c457600080fd5b506100cd610300565b6040516100da9190610764565b60405180910390f35b3480156100ef57600080fd5b5061010a600480360381019061010591906107b0565b610306565b604051610117919061081e565b60405180910390f35b34801561012c57600080fd5b50610135610345565b6040516101429190610764565b60405180910390f35b34801561015757600080fd5b5061016061034b565b60405161016d9190610764565b60405180910390f35b34801561018257600080fd5b5061018b610351565b604051610198919061081e565b60405180910390f35b3480156101ad57600080fd5b506101b6610377565b6040516101c39190610764565b60405180910390f35b3480156101d857600080fd5b506101e161037d565b6040516101ee91906108d2565b60405180910390f35b34801561020357600080fd5b5061020c61040b565b60405161021991906108d2565b60405180910390f35b34801561022e57600080fd5b50610237610499565b6040516102449190610915565b60405180910390f35b6102556104bf565b005b6102603361069c565b61029f576040517f08c379a0000000000000000000000000000000000000000000000000000000008152600401610296906109a2565b60405180910390fd5b600660008154809291906102b2906109f1565b9190505550600154423373ffffffffffffffffffffffffffffffffffffffff167f4eaf7ad004de84ee1141fc6fbefbcc3d0b419a2bef94ac835c65b9f7dbdfcc0360405160405180910390a4565b60045481565b6005818154811061031657600080fd5b906000526020600020016000915054906101000a900473ffffffffffffffffffffffffffffffffffffffff1681565b60015481565b60035481565b600860009054906101000a900473ffffffffffffffffffffffffffffffffffffffff1681565b60065481565b6002805461038a90610a69565b80601f01602080910402602001604051908101604052809291908181526020018280546103b690610a69565b80156104035780601f106103d857610100808354040283529160200191610403565b820191906000526020600020905b8154815290600101906020018083116103e657829003601f168201915b505050505081565b6000805461041890610a69565b80601f016020809104026020016040519081016040528092919081815260200182805461044490610a69565b80156104915780601f1061046657610100808354040283529160200191610491565b820191906000526020600020905b81548152906001019060200180831161047457829003601f168201915b505050505081565b600760009054906101000a900473ffffffffffffffffffffffffffffffffffffffff1681565b600860009054906101000a900473ffffffffffffffffffffffffffffffffffffffff1673ffffffffffffffffffffffffffffffffffffffff163373ffffffffffffffffffffffffffffffffffffffff161461054f576040517f08c379a000000000000000000000000000000000000000000000000000000000815260040161054690610b0d565b60405180910390fd5b60026005805490506105619190610b5c565b60065410156105a5576040517f08c379a000000000000000000000000000000000000000000000000000000000815260040161059c90610c25565b60405180910390fd5b600760009054906101000a900473ffffffffffffffffffffffffffffffffffffffff1673ffffffffffffffffffffffffffffffffffffffff166108fc349081150290604051600060405180830381858888f1935050505015801561060d573d6000803e3d6000fd5b5042600760009054906101000a900473ffffffffffffffffffffffffffffffffffffffff1673ffffffffffffffffffffffffffffffffffffffff1660006040516106579190610ce4565b60405180910390207f6a7652f1e6e964f6cfe3a0c7ff1401b6ba5af7f42816d5b18a5252a87e222c3f60015434604051610692929190610cfb565b60405180910390a4565b600080600090505b600580549050811015610740578273ffffffffffffffffffffffffffffffffffffffff16600582815481106106dc576106db610d24565b5b9060005260206000200160009054906101000a900473ffffffffffffffffffffffffffffffffffffffff1673ffffffffffffffffffffffffffffffffffffffff16141561072d576001915050610746565b8080610738906109f1565b9150506106a4565b50600090505b919050565b6000819050919050565b61075e8161074b565b82525050565b60006020820190506107796000830184610755565b92915050565b600080fd5b61078d8161074b565b811461079857600080fd5b50565b6000813590506107aa81610784565b92915050565b6000602082840312156107c6576107c561077f565b5b60006107d48482850161079b565b91505092915050565b600073ffffffffffffffffffffffffffffffffffffffff82169050919050565b6000610808826107dd565b9050919050565b610818816107fd565b82525050565b6000602082019050610833600083018461080f565b92915050565b600081519050919050565b600082825260208201905092915050565b60005b83811015610873578082015181840152602081019050610858565b83811115610882576000848401525b50505050565b6000601f19601f8301169050919050565b60006108a482610839565b6108ae8185610844565b93506108be818560208601610855565b6108c781610888565b840191505092915050565b600060208201905081810360008301526108ec8184610899565b905092915050565b60006108ff826107dd565b9050919050565b61090f816108f4565b82525050565b600060208201905061092a6000830184610906565b92915050565b7f4f6e6c79206120476f7665726e6d656e7420617070726f76656420656e67696e60008201527f6565722063616e20617070726f76650000000000000000000000000000000000602082015250565b600061098c602f83610844565b915061099782610930565b604082019050919050565b600060208201905081810360008301526109bb8161097f565b9050919050565b7f4e487b7100000000000000000000000000000000000000000000000000000000600052601160045260246000fd5b60006109fc8261074b565b91507fffffffffffffffffffffffffffffffffffffffffffffffffffffffffffffffff821415610a2f57610a2e6109c2565b5b600182019050919050565b7f4e487b7100000000000000000000000000000000000000000000000000000000600052602260045260246000fd5b60006002820490506001821680610a8157607f821691505b60208210811415610a9557610a94610a3a565b5b50919050565b7f4f6e6c7920676f7665726e6d656e74206f6666696369616c2063616e2070617360008201527f73206120636f6e74726163740000000000000000000000000000000000000000602082015250565b6000610af7602c83610844565b9150610b0282610a9b565b604082019050919050565b60006020820190508181036000830152610b2681610aea565b9050919050565b7f4e487b7100000000000000000000000000000000000000000000000000000000600052601260045260246000fd5b6000610b678261074b565b9150610b728361074b565b925082610b8257610b81610b2d565b5b828204905092915050565b7f436f6e74726163746f72206d75737420676574206d616a6f726974792061707060008201527f726f76616c7320746f206765742061776172646564207769746820612064656160208201527f6c00000000000000000000000000000000000000000000000000000000000000604082015250565b6000610c0f604183610844565b9150610c1a82610b8d565b606082019050919050565b60006020820190508181036000830152610c3e81610c02565b9050919050565b600081905092915050565b60008190508160005260206000209050919050565b60008154610c7281610a69565b610c7c8186610c45565b94506001821660008114610c975760018114610ca857610cdb565b60ff19831686528186019350610cdb565b610cb185610c50565b60005b83811015610cd357815481890152600182019150602081019050610cb4565b838801955050505b50505092915050565b6000610cf08284610c65565b915081905092915050565b6000604082019050610d106000830185610755565b610d1d6020830184610755565b9392505050565b7f4e487b7100000000000000000000000000000000000000000000000000000000600052603260045260246000fdfea264697066735822122044b9fde7b19543771ace3260fd01b94e49a1cb11229b790c9bbf00798d61ca7d64736f6c634300080a0033",
  "linkReferences": {},
  "deployedLinkReferences": {}
}